:1000000012C02DC02BC02AC029C028C027C026C0BE
:1000100025C024C023C022C021C020C01FC01EC0D4
:100020001DC01CC01BC011241FBECFE5D4E0DEBF25
:10003000CDBF10E0A0E6B0E0E4E6F2E002C005903B
:100040000D92A038B107D9F710E0A0E8B0E001C0E8
:100050001D92A438B107E1F756D002C1D1CF1F924B
:100060000F920FB60F9211248F939F93809180006F
:1000700090918100019769F41EBC8CB59DB5909359
:100080008300809382001DBC1CBC109281001092E2
:1000900080008091800090918100892B49F48EB579
:1000A00081608EBD81E090E090938100809380001C
:1000B0009F918F910F900FBE0F901F90189588BB46
:1000C0009698959A80ED97E00197F1F782B3807C3E
:1000D00082BB18BA089588BB969A959A80ED97E0EE
:1000E0000197F1F782B3807C82BB18BA0895CF9351
:1000F000DF93EC0102C02196EEDF88811816DCF355
:10010000DF91CF910895DF92EF92FF920F931F93AB
:10011000DF93CF93CDB7DEB760970FB6F894DEBF0D
:100120000FBECDBF8FEF87BB8BEF81BB04ED10E31C
:10013000C8010197F1F78BB780648BBF85B78160E9
:1001400085BF1FBC81E0BBDFC8010197F1F788E3E1
:10015000B6DFC8010197F1F78FE0B1DFC801019761
:10016000F1F7789485E0D82E7E010894E11CF11C0B
:10017000909A8D2D8A95F1F79098009182001091B8
:10018000830080E690E0B3DF80EC99DF8FE690E0BB
:10019000AEDFC8016AE370E00DD0CB01B7014AE0E1
:1001A00050E02FD0C701A3DF89E790E0A0DF80E80F
:1001B00086DFDECF97FB092E07260AD077FD04D015
:1001C0000CD006D000201AF4709561957F4F0895E9
:1001D000F6F7909581959F4F0895AA1BBB1B51E19F
:1001E00007C0AA1FBB1FA617B70710F0A61BB70BA7
:1001F000881F991F5A95A9F780959095BC01CD014C
:100200000895FB019F01E8944230BCF04532ACF404
:100210004A3029F497FB1EF4909581959F4F642FE7
:100220007727DBDF805D8A330CF0895D8193CB011A
:100230000097A9F716F45DE251931082C90100C03E
:10024000DC01FC01672F71917723E1F7329704C03D
:100250007C916D9370836291AE17BF07C8F30895C8
:04026000F894FFCF40
:100264004349524355495420444947455354004453
:10027400495354414E43453D00636D2020202000E6
:00000001FF
